:020000040800F2
:100000000004002045010008E5010008DD010008AA
:10001000E10100088D01000839030008000000001C
:10002000000000000000000000000000E9010008DE
:100030009101000800000000E7010008D502000857
:100040005F0100085F0100085F0100085F01000810
:100050005F0100085F0100085F0100085F01000800
:100060005F0100085F0100085F0100085F010008F0
:100070005F0100085F0100085F0100085F010008E0
:100080005F0100085F0100085F0100085F010008D0
:100090005F0100085F0100085F0100085F010008C0
:1000A0005F0100085F0100085F0100085F010008B0
:1000B0005F0100085F0100085F0100085F010008A0
:1000C0005F0100085F0100085F0100085F01000890
:1000D0005F0100085F0100085F0100085F01000880
:1000E000930100085F0100085F0100085F0100083C
:1000F0005F0100085F0100085F0100085F01000860
:100100005F0100085F0100085F0100085F0100084F
:100110005F0100085F0100085F0100085F0100083F
:100120005F0100085F0100085F0100085F0100082F
:10013000DFF80CD000F018F8004800475B03000817
:10014000000400200648804706480047FEE7FEE717
:10015000FEE7FEE7FEE7FEE7FEE7FEE7FEE7FEE777
:10016000D902000831010008064C074D06E0E0689E
:1001700040F0010394E8070098471034AC42F6D3EE
:10018000FFF7DAFF600300087003000800BFFEE716
:10019000704710B54FF4804000F00CF8012802D1F0
:1001A000800300F001F810BD0149086070470000AD
:1001B00014040140014600200022074B1B6803EA9B
:1001C0000102054B14331B680B4013B10AB1012027
:1001D00000E00020704700000004014000BFFEE77F
:1001E00000BFFEE770477047704710B500F002F897
:1001F00010BD00000CB5002001900090334800684D
:1002000040F480303149086000BF3048006800F495
:10021000003000900198401C0190009818B9019896
:10022000B0F5A06FF1D12948006800F4003010B19A
:100230000120009001E0002000900098012843D1A7
:100240002348006840F01000214908600846006813
:1002500020F0030008600846006840F002000860D3
:100260001A4840681949486008464068486008468E
:10027000406840F4806048600846406820F47C1084
:1002800048600846406840F4E81048600846006846
:1002900040F08070086000BF0C48006800F00070FB
:1002A0000028F9D00948406820F003000749486059
:1002B0000846406840F00200486000BF03484068BC
:1002C00000F00C000828F9D10CBD0000001002401D
:1002D000002002407047000010B51348006840F04D
:1002E00001001149086008464068104908400E495D
:1002F0004860084600680E4908400B4908600846F7
:10030000006820F4802008600846406820F4FE0061
:1003100048604FF41F008860FFF767FF4FF00060F0
:100320000449086010BD0000001002400000FFF802
:10033000FFFFF6FE08ED00E000BFFEE702E008C8A0
:10034000121F08C1002AFAD170477047002001E04F
:1003500001C1121F002AFBD1704700207047000026
:100360007003000800000020000400004C03000897
:0400000508000131BD
:00000001FF
