:020000040800F2
:100000002808002045010008450D0008CF0B000816
:10001000410D0008F304000851160008000000001C
:100020000000000000000000000000006112000855
:10003000250A000800000000BF1100082D14000868
:100040005F0100085F0100085F0100085F01000810
:100050005F0100085F0100085F0100085F01000800
:100060005F0100085F0100085F0100085F010008F0
:100070005F0100085F0100085F0100085F010008E0
:100080005F0100085F0100085F0100085F010008D0
:100090005F0100085F0100085F0100085F010008C0
:1000A0005F0100085F0100085F0100085F010008B0
:1000B0005F010008911400085F0100085F0100085B
:1000C0005F0100085F0100085F0100085F01000890
:1000D0005F0100085F0100085F0100085F01000880
:1000E0006D0A00085F0100085F0100085F01000859
:1000F0005F0100085F0100085F0100085F01000860
:100100005F0100085F0100085F0100085F0100084F
:100110005F0100085F0100085F0100085F0100083F
:100120005F0100085F0100085F0100085F0100082F
:10013000DFF80CD000F0BCF9004800477516000845
:10014000280800200648804706480047FEE7FEE7EB
:10015000FEE7FEE7FEE7FEE7FEE7FEE7FEE7FEE777
:10016000311400083101000880EA010210B502F0E4
:100170000043400022D04A001FD0010E01EB126163
:10018000C0F35600C2F3560240F4000042F40002ED
:10019000A0FB022000047F39140400D0401C50EA68
:1001A000124001D44000491EC2B20C0604EBD0102C
:1001B000401C4008802A02D003E0002010BD20F03F
:1001C0000100002900DA0020184310BD2DE9FE4F80
:1001D00081EA030404F0004421F0004100944FF050
:1001E000000B23F0004350EA01045ED052EA0304FE
:1001F0005BD0C3F30A54C1F30A552C44A4F2F33480
:100200000194A0FB0254C1F3130141F48011C3F324
:10021000130343F4801301FB024400FB034E840AE2
:10022000970A44EA815447EA8357A4FB076802957A
:100230008D0A05FB07854FEA932C04FB0C54270518
:10024000029D4FEA065847EA1637B5EB08056EEBF4
:10025000070C870E920E47EA811742EA8312A7FB2A
:100260000201B6EB0B0164EB00042B0D43EA0C33E7
:100270005E1844EB1C50DA465146E7FB0201C5F319
:1002800013044FEA0B3343EA14534FEA0432019C40
:1002900043EA0603A4F10C040294009CCDE900B4E7
:1002A00000F0B7F803B0BDE8F08F00200146F9E791
:1002B00096230022114600F06FB80EB540F233418C
:1002C00002910021CDE900110A460B4600F0A1F889
:1002D00003B000BD00F0004220F00040C10DC0F3AB
:1002E000160040F400007F2901DA002070479629AB
:1002F00003DCC1F19601C84001E096398840002A2C
:10030000F4D04042704720F00040C10DC0F3160009
:1003100040F400007F2901DA00207047962903DCB1
:10032000C1F19601C840704796398840704701F086
:10033000004330B421F0004150EA010206D00A0D1A
:10034000A2F56072C1F31301002A02DC30BC002068
:100350007047440F44EAC104C100E01830BC00EB10
:10036000C25000F010B8202A04DB203A21FA02F033
:100370000021704721FA02F3D040C2F120029140DF
:100380000843194670470029A8BF7047401C490020
:1003900008BF20F00100704710B4B0FA80FC00FAEA
:1003A0000CF050EA010404BF10BC704749B1CCF115
:1003B000200421FA04F411FA0CF118BF01212143A1
:1003C0000843A3EB0C01CB1D4FEA00614FEA10205C
:1003D00042BF002010BC704700EBC35010440029FE
:1003E000A4BF10BC7047401C490008BF20F00100AA
:1003F00010BC704710B5141E73F1000408DA401CDD
:1004000041F1000192185B411A4301D120F0010033
:1004100010BD2DE9F04D92469B4611B1B1FA81F223
:1004200002E0B0FA80F22032904600F053F8044621
:100430000F4640EA0A0041EA0B0153465A46084378
:1004400013D0114653EA010019D0C8F140025046BA
:10045000FFF789FF05460E4650465946424600F0D2
:1004600039F8084305D0012004E020463946BDE8AC
:10047000F08D0020054346EAE0762C4337430A9886
:100480006305E40AA0EB08000022FD0A44EA475491
:100490000A3002D500200146E9E70105101969413B
:1004A000DDE9084500196941BDE8F04DA2E700000B
:1004B000064C074D06E0E06840F0010394E80700B1
:1004C00098471034AC42F6D3FFF736FE7C2F000875
:1004D0009C2F0008202A04DB203A00FA02F10020B9
:1004E00070479140C2F1200320FA03F31943904072
:1004F000704700BFFEE700002DE9F04106460F46B9
:100500000224002500211A4800F0DAFF04B9012472
:100510006000401EA04202DA6000401E84B2002546
:100520000BE0B81B684390FBF4F030441FFA80F8EE
:10053000104820F81580681CC5B2A542F1DB0EE01A
:10054000B81B291B4843C4EB440190FBF1F0381A57
:100550001FFA80F8074820F81580681CC5B26000B3
:10056000A842EDDC2146034800F006F8BDE8F08122
:10057000001000400800002030B58BB005460C4646
:100580000121102000F02CFE0121042000F028FEA3
:100590000121480700F024FE0121022000F010FE96
:1005A0000121042000F02CFE0121084600F028FE65
:1005B00000208DF82B003020ADF8280003208DF8A6
:1005C0002A000AA9454800F077FA08A800F0F8FFC9
:1005D0000120ADF824002C20ADF820000020ADF85B
:1005E0002600ADF8220008A93D4800F097FF202121
:1005F0003B4800F089FF0120ADF824000620ADF84B
:1006000020000020ADF82600ADF8220008A93548EA
:1006100000F084FF2021334800F076FF002009908D
:1006200002200A90042007900020089007A900F0FB
:100630008DF82C20079007A9102000F087F803946C
:100640001020029000200A90274801904FF400608B
:1006500007908020059025480090401506900020C6
:100660000490202008904FF440500990694620489B
:1006700000F092F84FF480600790801006902020E0
:1006800003901C48019019480C30009069461848A6
:10069000143000F081F80121002000F041F8012120
:1006A000102000F03DF80121114800F069F8012107
:1006B0000F48143000F064F80121002000F01CF80D
:1006C0000121102000F018F80121064800F0F8FE82
:1006D0000121034800F0F4FE0BB030BD00080140DA
:1006E000001000400008004008000020087400408E
:1006F000300402403A17000839B1084A1268012351
:1007000083401A43054B1A6006E0044A126801232D
:1007100083409A43014B1A60704700000074004008
:1007200041B1094A12684FF4805383401A43064B83
:100730001A6007E0044A12684FF4805383409A43DA
:10074000014B1A60704700000074004030B5002271
:1007500000230A4C226840F6FE748440A243D1E98B
:1007600000452C438D682C43CD6844EA050303FA09
:1007700000F42243014C226030BD000000740040B0
:1007800021B1026842F00102026004E002684FF603
:10079000FE731A400260704710B50022026847F6E7
:1007A000F0739A430C6A8B6823430C6923434C69AA
:1007B00023438C692343CC6923434C6A23438C6ACB
:1007C00023431A430260CB6843600B6883604B6825
:1007D000C36010BD10B5002400F064F804E0601C94
:1007E000C4B2012000F02BF90D48006808B1C82CF4
:1007F000F5DBC82C01DB012010BD002404E0601CE7
:10080000C4B2012000F01BF90548006808B9F02CBB
:10081000F5DBF02C01DB0120EEE70020ECE7000027
:100820002C0121422DE9F05F00F0C2F800F0AAF897
:10083000FFF7D0FFCC2000F0C7F8BE2000F0C4F8CE
:1008400000F08EF8834600F08BF8824654460BEB9E
:10085000042084B204F47840B0F5784F0FD1E0431F
:10086000401C84B22046FFF728FD074600220B4BB0
:10087000FFF7ACFC0546FFF75AFD81460BE020462A
:10088000FFF71BFD05460022054BFFF79FFC0746BF
:10089000FFF74DFD81464846BDE8F09F0000B0BF20
:1008A0000000B03F08B54FF40060ADF800004820EC
:1008B0008DF803006946024800F0FEF808BD00000C
:1008C0000008014008B54FF40060ADF800000320B7
:1008D0008DF8020010208DF803006946014800F0F1
:1008E000EBF808BD0008014008B50121042000F024
:1008F00087FC4FF40060ADF8000003208DF8020083
:1009000010208DF803006946034800F0D5F800F088
:1009100039F8FFF75FFF08BD0008014010B5FFF789
:10092000D1FF00200C490860022000F088F8012067
:100930000A49C1F8AC01FFF7B5FF0C2000F07FF8C1
:1009400005488038006808B1012400E00024322006
:1009500000F075F8204610BDAC0121420000214294
:1009600070B50026002508E0FFF7D8FF0446E00137
:1009700040EA6600C6B2681CC5B2082DF4DB3046FA
:1009800070BD000010B5FFF79DFF0020064908600C
:1009900040F2EE2000F053F801200449C1F8AC0108
:1009A0000F2000F04CF810BDAC01214200002142A4
:1009B00010B5FFF7E7FFFFF70DFFCC2000F004F8BC
:1009C000442000F001F810BD70B50446FFF77AFF2F
:1009D000012520E004F0010664106EB100200F49EB
:1009E0000860022000F02BF801200D49C1F8AC018D
:1009F0003C2000F024F80CE00020084908603C206E
:100A000000F01DF801200649C1F8AC01022000F0F9
:100A100016F8681CC5B2082DDCDD70BDAC012142A2
:100A200000002142704700B5034603E04FF47A709E
:100A300000F005F8181EA3F10103F7D100BD00EB8B
:100A4000C001C9004FF0E0225161002191610521F0
:100A5000116100BF4FF0E021096901F480310029E4
:100A6000F8D004214FF0E0221161704710B54FF427
:100A7000804000F00DF8012802D1800300F002F858
:100A800010BD0000014908607047000014040140D7
:100A9000014600200022074B1B6803EA0102054BB8
:100AA00014331B680B4013B10AB1012000E0002091
:100AB00070470000000401402DE9F0410246002586
:100AC0000026002000230024002791F803C00CF02A
:100AD0000F0591F803C00CF0100CBCF1000F03D00F
:100AE00091F802C04CEA050591F800C0BCF1000F76
:100AF00031D0146800202BE04FF0010C0CFA00F309
:100B0000B1F800C00CEA03069E4220D183004FF0EA
:100B10000F0C0CFA03F7BC4305FA03FC4CEA04047F
:100B200091F803C0BCF1280F06D14FF0010C0CFA6C
:100B300000FCC2F814C00AE091F803C0BCF1480FF1
:100B400005D14FF0010C0CFA00FCC2F810C0401C9B
:100B50000828D1D31460B1F800C0BCF1FF0F34DD18
:100B6000546800202EE000F1080C4FF0010808FA4C
:100B70000CF3B1F800C00CEA03069E4221D18300B9
:100B80004FF00F0C0CFA03F7BC4305FA03FC4CEAD8
:100B9000040491F803C0BCF1280F05D100F1080C42
:100BA00008FA0CF8C2F8148091F803C0BCF1480FA1
:100BB00007D100F1080C4FF0010808FA0CF8C2F850
:100BC0001080401C0828CED35460BDE8F08100BFDF
:100BD000FEE7000008B50121082000F011FB4020CD
:100BE000ADF8000003208DF8020010208DF80300FE
:100BF00069460848FFF760FF8020ADF800006946AD
:100C00000448FFF759FF0120034908600349C1F870
:100C10009C0108BD000C01409881214200802142C6
:100C200070B5044600F00AFB002014490860002556
:100C300020E004F08000002804DD01200F49091D98
:100C4000086003E000200D49091D08606006040EDD
:100C50000220FFF7F4FE0120084908600220FFF798
:100C6000EEFE00200649C1F898010220FFF7E7FEDA
:100C7000681CC5B2082DDCDB70BD000098812142E4
:100C80000080214210B500F0D9FA0120094908601E
:100C90000949C1F898010520FFF7D1FE0020054958
:100CA00008600620FFF7CBFE00200349C1F8980139
:100CB00010BD00009C8121420080214210B500F04F
:100CC000BDFA0020094908600949C1F89C010120CA
:100CD000064908600620FFF7B2FE01200449C1F86A
:100CE0009C010620FFF7ABFE10BD00009881214259
:100CF0000080214210B5002401200F490860FFF751
:100D00009EFE00F08DFA01200C49C1F89801FFF712
:100D100096FE07E0601CC4B2FA2C03DDFFF7CEFF9D
:100D2000012010BD0448803800680028F2D1024933
:100D3000091F086000BFF4E79C8121420080214226
:100D400000BFFEE77047000070B5002100230F22AE
:100D5000C47804B3154C246804F4E064C4F5E0647A
:100D6000210AC1F10403CA40447804FA03F18478EB
:100D70001440214309010E4C0678A155047804F073
:100D80001F050124AC4005786D11AD0005F1E0258B
:100D9000C5F8004109E0047804F01F050124AC40C7
:100DA000044D0678761145F8264070BD0CED00E044
:100DB00000E400E080E100E002490143024A1160E2
:100DC000704700000000FA050CED00E070B500244B
:100DD0000CE0002506E00020074901EBC50108559D
:100DE000681CC5B2802DF6DB601CC4B2082CF0DB99
:100DF00000F0A6F870BD000028000020F0B51446F1
:100E000000267F2801DC3F2900DDF0BD0B46CF170F
:100E100001EB5777FF10C7F10707FAB2CF1701EBC5
:100E20005777FF10A1EBC707FDB2C5F107070123F4
:100E3000BB40DEB24CB10A4B03EBC0039B5C3343B7
:100E4000074F07EBC007BB5408E0054B03EBC0039B
:100E50009B5CB343024F07EBC007BB5400BFD4E712
:100E60002800002010B54FF4A060FFF7A5FFFFF7A2
:100E7000B1FE0021AE2000F096F90021D52000F04F
:100E800092F90021502000F08EF90021A82000F0F6
:100E90008AF900213F2000F086F90021D32000F0DC
:100EA00082F90021084600F07EF90021402000F080
:100EB0007AF900218D2000F076F90021142000F04D
:100EC00072F90021202000F06EF90021022000F0CC
:100ED0006AF90021A12000F066F90021C02000F08D
:100EE00062F90021DA2000F05EF90021122000F002
:100EF0005AF90021812000F056F90021EF2000F07E
:100F000052F90021D92000F04EF90021F12000F023
:100F10004AF90021DB2000F046F90021302000F0E2
:100F200042F90021A42000F03EF90021A62000F0A3
:100F30003AF90021AF2000F036F9FFF747FF10BD66
:100F400070B507241AE004F1B001C8B2002100F026
:100F50002AF90021084600F026F90021102000F0AF
:100F600022F9002507E0074901EBC501085D0121D1
:100F700000F019F96D1C802DF5DB641E002CE2DAFF
:100F800070BD0000280000202DE9F84F80460F4674
:100F900016461C46BA462046E31704EB5373DB1093
:100FA00021464FEAE47C04EB5C7C4FEAEC0CA4EBBA
:100FB000CC0CBCF1000F02D04FF0010C01E04FF05F
:100FC000000C6344224604EBD27C4FEA6C0C03FB1A
:100FD0000CF303F0FF0BA6F12000C6B200254EE093
:100FE0000C2C07D106EB4600274901EB8000405D41
:100FF000009013E0102C05D1244800EB0610405D52
:1010000000900BE0182C07D106EBC600204901EB3D
:101010008000405D009001E0BDE8F88F4FF00009CE
:1010200027E0009800F0800028B1394640460A9A2F
:10103000FFF7E4FE09E00A9808B9012000E000206B
:10104000024639464046FFF7D9FE00984006000E9A
:101050000090781CC7B2A7EB0A00A04205D1574602
:1010600008F1010000F0FF0806E009F1010000F0BE
:10107000FF09B9F1080FD4DB00BF681CC5B25D459C
:10108000AEDB00BFC8E700007A170008EE1B0008BF
:10109000DE2100082DE9FF4F81B0074691461E462C
:1010A0000E9D4FF0000A002439E0301B401EC1B2F3
:1010B0000A2000F00BFBB9FBF0F00A21B0FBF1F2C3
:1010C00001FB1208BAF1000F16D1701EA04213DD09
:1010D000B8F1000F0ED10120AB4605EBDB714910D2
:1010E00001FB04710090C8B22B4620220299FFF741
:1010F0004BFF12E04FF0010A0120AB4605EBDB711C
:10110000491001FB04710090C8B208F13001CAB265
:101110002B460299FFF738FF00BF601CC4B2B442EF
:10112000C3DB05B0BDE8F08F2DE9FC5F05468946BD
:1011300016461F460C9CB0464046FFF7E4F8824630
:1011400002235246494628460094FFF7A3FF012098
:1011500029190090C8B223462E224946FFF714FFF2
:1011600039460A2000F0B2FA0090FFF7A1F8834652
:101170004146FEF7F9FF8246FFF7ACF88346394651
:101180000A2000F0A3FABBFBF0F100FB11B0291913
:10119000091DCDE90040C8B23B464946019AFFF718
:1011A00079FFBDE8FC9F70B505460C461CB128468A
:1011B00000F0ADFA02E0284600F093FA70BD7047E7
:1011C00029B1064A52690243044B5A6104E0034ABA
:1011D00052698243014B5A6170470000001002407F
:1011E00029B1064AD2690243044BDA6104E0034A9A
:1011F000D2698243014BDA6170470000001002405F
:1012000029B1064A92690243044B9A6104E0034AF9
:1012100092698243014B9A617047000000100240BE
:1012200008B58020ADF8000048208DF8030069461D
:101230000148FFF741FC08BD000C014008B58020C3
:10124000ADF8000003208DF8020010208DF8030097
:1012500069460248FFF730FC08BD0000000C014061
:10126000704700002DE9F0410646002500240020CB
:10127000324908801C20091D08803220FFF7D3FB6B
:1012800000202E4908800720091D08803220FFF722
:10129000CAFB0020294908801C20091D0880322033
:1012A000FFF7C1FB3046FFF72EF885B200BF15E00F
:1012B0000120A040284030B10020204908800720AC
:1012C000091D088005E000201C4908801C20091D1C
:1012D00008803220FFF7A7FB601CC4B2062CE7DBB6
:1012E00017493046FEF740FF0746FFF70CF880B27B
:1012F0000A2190FBF1F201FB120085B2002415E0F7
:101300000120A040284030B100200C49088007206F
:10131000091D088005E00020084908801C20091DDF
:1013200008803220FFF77FFB601CC4B2042CE7DB8F
:1013300007200249091D0880BDE8F081240800400B
:101340000000204110B500F001F810BD0CB50020E0
:10135000019000903348006840F4803031490860C3
:1013600000BF3048006800F4003000900198401C35
:101370000190009818B90198B0F5A06FF1D12948F3
:10138000006800F4003010B10120009001E000205E
:1013900000900098012843D12348006840F01000D5
:1013A000214908600846006820F0030008600846EC
:1013B000006840F0020008601A4840681949486017
:1013C0000846406848600846406840F480604860CD
:1013D0000846406820F47C1048600846406840F4A5
:1013E000E81048600846006840F08070086000BF60
:1013F0000C48006800F000700028F9D009484068E7
:1014000020F00300074948600846406840F00200A9
:10141000486000BF0348406800F00C000828F9D17C
:101420000CBD000000100240002002407047000088
:1014300010B51348006840F00100114908600846E3
:101440004068104908400E494860084600680E4947
:1014500008400B4908600846006820F480200860B6
:101460000846406820F4FE0048604FF41F00886082
:10147000FFF768FF4FF000600449086010BD0000EE
:10148000001002400000FFF8FFFFF6FE08ED00E04C
:1014900010B50121054800F01FF8012805D10449C5
:1014A00008700121014800F008F810BD0004004058
:1014B00000000020CA4302827047CA43028270477C
:1014C00021B1028842F00102028004E002884FF656
:1014D000FE731A400280704702460020138A0B40B8
:1014E0000BB1012000E0002070471AB183890B4343
:1014F000838102E083898B438381704701894FF6A2
:10150000F87211400181704782884FF68F731A403C
:10151000828082880A43828070470000002202880D
:101520001D4B98420ED01D4B98420BD0B0F1804F0E
:1015300008D01B4B984205D01A4B984202D01A4B48
:10154000984204D14FF68F731A404B881A43174BB9
:10155000984207D0164B984204D04FF6FF431A40EA
:10156000CB881A4302808B8883850B8803850A4BBE
:1015700098420BD0094B984208D00E4B984205D0A8
:101580000D4B984202D00D4B984201D10B7A038645
:101590000123838270470000002C01400034014089
:1015A0000004004000080040000C00400010004013
:1015B0000014004000400140004401400048014048
:1015C0004FF6FF71818000210180C180418001724E
:1015D000704700001FB501210220FFF701FE1B48E4
:1015E000FFF78CFF0020ADF80A00ADF8060044F6C6
:1015F0001F60ADF8080041F61F40ADF80400002060
:101600008DF80C0001A91148FFF788FF01210F4850
:10161000FFF750FF012211460C48FFF766FF4FF419
:10162000A060FFF7C9FB1D208DF8000001208DF898
:1016300003008DF801008DF802006846FFF784FB77
:1016400001210248FFF73CFF1FBD000000040040DD
:1016500000BFFEE702E008C8121F08C1002AFAD145
:1016600070477047002001E001C1121F002AFBD122
:101670007047000008B5FFF7F5FBFFF7ABFF40F63A
:10168000FF710020FEF738FFFFF72EF918E0FFF793
:10169000C9F80C4908601020012300900846002179
:1016A00002680846FFF740FDFFF74AFC064800784D
:1016B00030B104480068FFF7D5FD002002490870EA
:1016C000E5E70000040000200000002010B50246FD
:1016D000012000E050430B1EA1F10104E1B2F9D159
:1016E00010BD10B50446FFF7CDFA7820FFF798FA41
:1016F000FFF700FB0020FFF793FAFFF7FBFA204605
:10170000FFF78EFAFFF7F6FAFFF7D8FA10BD10B51B
:101710000446FFF7B7FA7820FFF782FAFFF7EAFAF4
:101720004020FFF77DFAFFF7E5FA2046FFF778FA49
:10173000FFF7E0FAFFF7C2FA10BDFF078F090F0BA2
:10174000710CAA0DA60E630FD80FFF0FD80F630FF1
:10175000A60EA70D710C0F0B8F09FF076F06EF0484
:101760008D03570258019B002600000026009B00B5
:10177000580157028D03EF046F06000000000000BF
:10178000000000000000000000003F4000000000DA
:101790000000000030004000300040000000090060
:1017A0000BC03D000BC03D00090018C024407FE085
:1017B000224031800000180024C01B000D80324000
:1017C000018003801C4027401C800740004010001F
:1017D00060000000000000000000000000000000A9
:1017E0001F80204040200000402020401F8000003B
:1017F0000000090006001F80060009000000040028
:1018000004003F800400040000000010006000009D
:1018100000000000000004000400040004000400B4
:101820000000000000400000000000000000002058
:1018300001C006003800400000001F80204020400A
:1018400020401F800000000010403FC0004000000A
:10185000000018C0214022402440184000001080A1
:101860002040244024401B80000002000D00110095
:101870003FC0014000003C8024402440244023809D
:1018800000001F80244024403440038000003000CA
:10189000200027C03800200000001B802440244086
:1018A00024401B8000001C0022C0224022401F80D8
:1018B00000000000000008400000000000000000E0
:1018C00000000460000000000000000004000A00A6
:1018D00011002080404009000900090009000900AA
:1018E000000000004040208011000A0004001800A1
:1018F000200023402400180000001F8020402740C3
:1019000029401F400000004007C039000F0001C0FF
:10191000004020403FC0244024401B8000001F8026
:101920002040204020403080000020403FC0204028
:1019300020401F80000020403FC024402E4030C087
:10194000000020403FC024402E00300000000F0067
:101950001080204022403380020020403FC004001D
:1019600004003FC02040204020403FC02040204095
:1019700000000060202020203FC0200020002040E8
:101980003FC024400B0030C0204020403FC02040DA
:101990000040004000C03FC03C0003C03C003FC0CE
:1019A000000020403FC00C4023003FC020001F80AB
:1019B0002040204020401F80000020403FC02440A5
:1019C0002400180000001F802140214020E01FA0BB
:1019D000000020403FC02440260019C0004018C02D
:1019E00024402440224031800000300020403FC08D
:1019F00020403000000020003F80004000403F8039
:101A0000200020003E0001C0070038002000380000
:101A100007C03C0007C038000000204039C0060065
:101A200039C0204000002000384007C03840200066
:101A30000000304021C02640384020C00000000097
:101A400000007FE0402040200000000070000C00FB
:101A50000380004000000000402040207FE00000A4
:101A600000000000200040002000000000000010E6
:101A700000100010001000100010000000004000D6
:101A8000000000000000000002800540054003C087
:101A9000004020003FC004400440038000000000DC
:101AA000038004400440064000000000038004401E
:101AB00024403FC000400000038005400540034033
:101AC0000000000004401FC024402440200000000B
:101AD00002E0055005500650042020403FC004405D
:101AE000040003C000400000044027C00040000084
:101AF000000000100010041027E00000000020404B
:101B00003FC00140070004C00440204020403FC0C7
:101B100000400040000007C0040007C0040003C0EC
:101B20000000044007C00440040003C0004000005F
:101B300003800440044003800000041007F00450B8
:101B4000044003800000000003800440045007F0BC
:101B50000010044007C00240040004000000000020
:101B600006400540054004C00000000004001F803E
:101B7000044000400000040007800040044007C00B
:101B800000400400070004C00180060004000600B5
:101B900001C0070001C006000000044006C00100AB
:101BA00006C0044000000410071004E00180060095
:101BB00004000000044005C006400440000000008E
:101BC000000004007BE04020000000000000000056
:101BD000FFF000000000000040207BE00400000057
:101BE0000000400080004000200020004000000075
:101BF00000000000000000000000000000000000E5
:101C0000000000001FCC000C0000000000000000DD
:101C10000800300060000800300060000000022072
:101C200003FC1E20022003FC1E20022000000000F6
:101C30000E1811043FFF10840C78000000000F0004
:101C400010840F3800C007781884007800000078EE
:101C50000F8410C411240E9800E4008400080800CA
:101C6000680070000000000000000000000000009C
:101C70000000000007E018182004400200000000E7
:101C800040022004181807E0000000000000024095
:101C9000024001800FF001800240024000000080FD
:101CA000008000800FF800800080008000000001AC
:101CB000000D000E00000000000000000000000009
:101CC0000080008000800080008000800080000094
:101CD000000C000C000000000000000000000000EC
:101CE00000060018006001800600180020000000B7
:101CF00007F0080810041004080807F000000000AE
:101D0000080408041FFC0004000400000000000098
:101D10000E0C10141024104411840E0C000000004E
:101D20000C1810041104110412880C70000000003B
:101D300000E00320042408241FFC0024000000000D
:101D40001F98108411041104108810700000000006
:101D500007F00888110411041888007000000000C2
:101D60001C00100010FC13001C00100000000000FC
:101D70000E3811441084108411440E380000000005
:101D80000700088C10441044088807F00000000089
:101D900000000000030C030C000000000000000025
:101DA000000000010106000000000000000000002B
:101DB00000800140022004100808100400000220E6
:101DC0000220022002200220022002200000000047
:101DD00010040808041002200140008000000000E8
:101DE0000E001200100C106C10800F00000003E0B9
:101DF0000C1813E4142417C4082807D000000004AA
:101E0000003C03C41C40074000E4001C0004100414
:101E10001FFC1104110411040E880070000003E07F
:101E20000C1810041004100410081C1000001004FA
:101E30001FFC100410041004080807F00000100430
:101E40001FFC1104110417C410040818000010042A
:101E50001FFC1104110017C010000800000003E06F
:101E60000C181004100410441C78004000001004EA
:101E70001FFC10840080008010841FFC10040000F0
:101E8000100410041FFC10041004000000000003E4
:101E90000001100110011FFE1000100000001004CE
:101EA0001FFC110403801464181C100400001004AB
:101EB0001FFC1004000400040004000C00001004C7
:101EC0001FFC1F0000FC1F001FFC1004000010047A
:101ED0001FFC0C04030000E010181FFC100007F0AA
:101EE0000808100410041004080807F0000010048B
:101EF0001FFC10841080108010800F00000007F07D
:101F0000081810241024101C080A07F200001004FE
:101F10001FFC1104110011C011300E0C0004000050
:101F20000E1C11041084108410441C38000018008A
:101F3000100010041FFC1004100018000000100016
:101F40001FF810040004000410041FF81000100013
:101F50001E0011E0001C007013801C0010001FC048
:101F6000103C00E01F0000E0103C1FC00000100407
:101F7000180C163401C001C01634180C10041000DF
:101F80001C00130400FC13041C00100000000804D3
:101F9000101C1064108413041C04101800000000AE
:101FA000000000007FFE40024002400200000000EE
:101FB00030000C0003800060001C000300000000E3
:101FC0004002400240027FFE0000000000000000CE
:101FD0000000200040004000400020000000000100
:101FE00000010001000100010001000100010000EA
:101FF0004000400020000000000000000000000041
:102000000098012401440144014400FC0004100034
:102010001FFC00880104010400880070000000001B
:102020000070008801040104010400880000000021
:10203000007000880104010411081FFC0004000066
:1020400000F8014401440144014400C800000000BC
:10205000010401040FFC1104110411001800000018
:1020600000D601290129012901C901060000100437
:102070001FFC008401000100010400FC00040000BA
:102080000104190419FC0004000400000000000011
:10209000000300010101190119FE000000001004F5
:1020A0001FFC0024004001B4010C010400000000EA
:1020B000100410041FFC00040004000000000104D0
:1020C00001FC0104010001FC0104010000FC010409
:1020D00001FC008401000100010400FC0004000078
:1020E00000F8010401040104010400F800000101EA
:1020F00001FF008501040104008800700000000059
:102100000070008801040104010501FF00010104C1
:10211000010401FC008401040100018000000000B2
:1021200000CC0124012401240124019800000000B6
:102130000100010007F80104010400000000010093
:1021400001F8000400040004010801FC000401007F
:1021500001800170000C001001600180010001F09D
:10216000010C003001C00030010C01F00100000042
:102170000104018C00740170018C01040000010154
:1021800001810171000E0018016001800100000052
:102190000184010C013401440184010C00000000A1
:1021A00000000000000001003EFC40024002000070
:1021B000000000000000FFFF000000000000000021
:1021C000400240023EFC0100000000000000000050
:1021D00060008000800040004000200020000000DF
:1021E00000000000000000000000000000000000EF
:1021F00000000000000000000000000000000000DF
:1022000000000000000000000000000000000000CE
:10221000000F80380FFE380F8038000000000000EB
:1022200000000000000000000000000001000006A7
:1022300000000C00003800003100000600000C0017
:102240000038000030000000000000000000618045
:102250000067F807F98000618000618000618000FC
:1022600061800067F807F9800061800000000000CD
:102270000000000001C0E003E0F006300804180888
:102280001FFFFE040E080787F00381E00000000036
:10229000000001F000060C00040408060C7001F9AF
:1022A000C0000E00003BE000EC18070808040C1802
:1022B0000003E00000000001E00007F003F818044C
:1022C0001C0804170807E1D003C0E00023B0003C5D
:1022D00008002008000010000000000000010000BD
:1022E0003100003200001C0000000000000000006F
:1022F00000000000000000000000000000000000DE
:1023000000000000000000000000000000007F004E
:1023100001FFC00780F00C0018100004200002002C
:1023200000000000002000021000040C00180780CC
:10233000F001FFC0007F000000000000000000006E
:1023400000000000000000000000420000660000E5
:102350006600003C0000180003FFC0001800003CAD
:102360000000660000660000420000000000080057
:1023700000080000080000080000080001FFC0007D
:102380000800000800000800000800000800000025
:102390000000000100003100003200001C000000BD
:1023A000000000000000000000000000000000002D
:1023B00000000000000008000008000008000008FD
:1023C00000000800000800000800000800000800E5
:1023D00000080000000000000000000000003800BD
:1023E000003800003800000000000000000000007D
:1023F00000000000000000000000000000000006D7
:1024000000001C000070000180000E000038000079
:10241000C0000700001C00003000000000000000A9
:1024200000007F8001FFE0038070060018040008B0
:1024300004000806001803807001FFE0007F8000A0
:102440000000000000000000010008010008010079
:102450000803FFF807FFF800000800000800000864
:1024600000000000000000000001C03802C0580455
:102470000098040118040218040418061C1803F834
:102480001801E0F800000000000000000001C0E0BA
:1024900003C0F0040008040808040808061808032C
:1024A000F41801E7F00001E0000000000000000067
:1024B00000000300000D0000110000610000810811
:1024C00003010807FFF80FFFF800010800010800EA
:1024D00000000000000000E007FCD006080806101D
:1024E00008061008061008061838060FF00607C080
:1024F000000000000000000000003F8001FFE0033A
:102500008430020818041008041008041008071882
:1025100010030FF00007C0000000000000000000E2
:1025200003C0000700000600000600F80607F806D2
:10253000180006E000070000060000000000000090
:102540000001E1E003F7F00634100418080418084D
:10255000040C08040C0806161803F3F001C1E0008F
:10256000000000000000F80003FC300306380402FD
:10257000080402080402080404100308F001FFC064
:10258000007F0000000000000000000000000000CC
:102590000000000000007038007038007038000043
:1025A000000000000000000000000000000000002B
:1025B00000000000000000000000301A00301C0085
:1025C000000000000000000000000000000000000B
:1025D000000000000008000014000022000041007C
:1025E0000080800100400200200400100800080064
:1025F0000000000000002100002100002100002157
:102600000000210000210000210000210000210025
:102610000021000000000000000000000800080485
:1026200000100200200100400080800041000022D4
:102630000000140000080000000000000003C000BB
:1026400004C000040000080038080F3808083808E3
:1026500010000C300007E00003C000000000000084
:1026600000003F8000FFE0038070020F10067088BA
:1026700004C088048308047F8802C09003012000FE
:10268000FE400000080000180001F8003E0801C2EA
:102690000007020007E20000FE00001FC80001F86A
:1026A00000003800000804000807FFF807FFF804DE
:1026B000080804080804080804080806180803F4B1
:1026C0001801E7F00001E0000000000000003F807A
:1026D00001FFE003807002001804000804000804F1
:1026E00000080400100600200780C000000004005D
:1026F0000807FFF807FFF8040008040008040008B2
:1027000004001802001003807001FFE0007F8000C9
:10271000000004000807FFF807FFF8040808040891
:1027200008040808040808043E0804000806001805
:1027300001006000000004000807FFF807FFF8042C
:102740000808040800040800040800043E0006000D
:1027500000060000018000000000000000003F8033
:1027600001FFE0038070060018040008040208045A
:1027700002080203F00783F00002000002000400D8
:102780000807FFF807FFF804080800080000080021
:1027900000080000080004080807FFF807FFF80415
:1027A0000008000000000000040008040008040005
:1027B0000807FFF807FFF8040008040008040008F1
:1027C00000000000000000000000000600000700FC
:1027D000000104000104000104000307FFFE07FFDD
:1027E000FC04000004000004000004000807FFF8D7
:1027F00007FFF8040C08001800003E0004C780051D
:1028000003C80600F804003804001800000804009B
:102810000807FFF807FFF804000800000800000898
:102820000000080000080000080000180000600018
:10283000000004000807FFF807800807FC00007F7D
:10284000C00003F80007C000780007800807FFF801
:1028500007FFF804000804000807FFF80700080352
:10286000C00000E000003800001E0000070000016A
:10287000C00400F007FFF8040000000000007F80A3
:1028800001FFE00380700600180400080400080639
:10289000001803003001FFE0007F8000000004000A
:1028A0000807FFF807FFF804040804040004040004
:1028B000040400040400060C0003F80001F000000A
:1028C0000000000000007F8001FFE0038070060030
:1028D000880400880400C806003C03003E01FFE6AF
:1028E000007F8400000004000807FFF807FFF804D9
:1028F0000808040800040C00040F00040BC00610B4
:10290000F003F03801E00800000800000001E0F8E2
:1029100003F030063010041808041808040C0804EA
:102920000C080206180207F00781E0000000018091
:102930000006000004000004000004000807FFF87F
:1029400007FFF8040008040000040000060000016E
:10295000800004000007FFE007FFF00400180000FB
:10296000080000080000080000080000080400102B
:1029700007FFE004000004000006000007E0000775
:10298000FE00041FE00001F80000380001E0043EF2
:102990000007C00006000004000004000007E0007B
:1029A00007FFC0041FF80007C007F80007FF8004F6
:1029B0003FF80007C004F800070000040000000012
:1029C0000004000806001807C07805F1C8003E00A2
:1029D000001F800463E80780F80600180400080060
:1029E000000004000006000007800007E008047CE7
:1029F00008001FF80007F800180804E008070000A6
:102A00000600000400000000000100080600380471
:102A100000F80403E8040F08047C0805F00807C068
:102A2000080700180400600000000000000000001B
:102A30000000000000000000003FFFFE2000022018
:102A4000000220000220000220000200000000001E
:102A50000000000008000007000000C0000038006F
:102A60000006000001C000003000000E0000010060
:102A700000000000000000002000022000022000F2
:102A8000022000022000023FFFFE000000000000C4
:102A9000000000000000000000000000000000082E
:102AA0000000100000300000200000300000100086
:102AB000000800000000000000000000010000010C
:102AC0000000010000010000010000010000010001
:102AD00000010000010000010000010000010000F1
:102AE0000000000000000020000020000010000096
:102AF00010000000000000000000000000000000C6
:102B000000000000000000F00019F8001B1800226F
:102B100008002608002408002410003FF8001FF8D1
:102B200000000800001800000004000007FFF80F74
:102B3000FFF00018180010080020080020080030DE
:102B400018001FF0000FC00000000000000007C0C8
:102B5000001FF000183000200800200800200800A6
:102B60003C08001C10000060000000000000000095
:102B7000000007C0001FF0003818002008002008DF
:102B800000200804101007FFF80FFFF000001000ED
:102B900000000000000000000007C0001FF000124D
:102BA00030002218002208002208003208001E10FF
:102BB000000E20000000000000002000002008009F
:102BC000200801FFF803FFF806200804200804206D
:102BD0000807200003000000000000000000000EB5
:102BE000000E6E001FF30031B10020B10020B100D3
:102BF0003191001F13002E1E00200E003000000037
:102C00000004000807FFF80FFFF80010080020007C
:102C1000002000002008003FF8001FF80000080016
:102C20000000000000000000002008002008002034
:102C300008063FF8063FF8000008000008000008FA
:102C40000000000000000000000000000000030081
:102C50000003002001002001002003063FFE063F84
:102C6000FC0000000000000000000000000400085C
:102C700007FFF80FFFF8000188000300002FC000D5
:102C800038F800203800200800000800000000008C
:102C90000000000004000804000804000807FFF812
:102CA0000FFFF80000080000080000080000000006
:102CB0000000002008003FF8003FF8001008002046
:102CC00000003FF8003FF8001008002000003FF827
:102CD000003FF8000008000000002008003FF80056
:102CE0003FF8001008001000002000002008003FFE
:102CF000F8001FF80000080000000000000007C0F6
:102D0000000FF000183000300800200800200800F4
:102D10003008001830000FF00007C000000000006D
:102D200000002001003FFF003FFF001011002009BC
:102D3000002008002008003038001FF0000FC000FD
:102D400000000000000007C0001FF000381800203D
:102D500008002008002009001011001FFF003FFF9D
:102D600000000100000000200800200800200800EA
:102D70003FF8003FF8000808001008002008002075
:102D800000003000003000000000000000000000E3
:102D9000000C78001E1800330800230800210800EA
:102DA00021880021980030F0003860000000000009
:102DB0000000200000200000200000FFF003FFF8CA
:102DC000002008002008002008000030000000005B
:102DD0000000000000002000003FF0007FF800002D
:102DE00018000008000008002010003FF8007FF0E5
:102DF0000000100000000000000020000030000073
:102E00003C00003F800023F00000780000700023A9
:102E100080003C00003000002000002000003C004A
:102E2000003FE00023F80000E0002700003E000023
:102E30003FE00021F80001E0003E0000200000001B
:102E400000002008002008003838003E6800278075
:102E50000003C8002CF800383800201800200800B3
:102E60000000000000002000003003003C01003F93
:102E7000830023EC000070002380003C0000200051
:102E800000200000000000000000000000380800E2
:102E900020380020F80023E8002F88003E08003882
:102EA0000800201800007000000000000000000072
:102EB0000000000000000000000008000014001FD7
:102EC000F7FC3000062000020000000000000000B7
:102ED00000000000000000000000000000000000F2
:102EE000FFFFFF00000000000000000000000000E5
:102EF00000000000000000002000023000061FF764
:102F0000FC001400000800000000000000000000A9
:102F100000000000000000000018000060000040F9
:102F20000000400000200000100000080000040025
:102F3000000400000C000010000020082410226093
:102F400021802641393202040C18F0601380106091
:102F500010181404180200010000020002024204CA
:102F600033F8000400023FF22022404200023FFEFC
:102F7000204220223FC20002000000009C2F0008D7
:102F8000000000200800000054160008A42F0008CC
:102F9000080000202008000064160008000000005F
:042FA0000000C84124
:0400000508000131BD
:00000001FF
