:020000040800F2
:100000000004002045010008170400080F04000840
:10001000130400088D0100088F060008000000008E
:100020000000000000000000000000005D04000867
:10003000AD0200080000000019040008490500088E
:100040005F0100085F0100085F0100085F01000810
:100050005F0100085F0100085F0100085F01000800
:100060005F0100085F0100085F0100085F010008F0
:100070005F0100085F0100085F0100085F010008E0
:100080005F0100085F0100085F0100085F010008D0
:100090005F0100085F0100085F0100085F010008C0
:1000A0005F0100085F0100085F0100085F010008B0
:1000B0005F0100085F0100085F0100085F010008A0
:1000C0005F0100085F0100085F0100085F01000890
:1000D0005F0100085F0100085F0100085F01000880
:1000E000AF0200085F0100085F0100085F0100081F
:1000F0005F0100085F0100085F0100085F01000860
:100100005F0100085F0100085F0100085F0100084F
:100110005F0100085F0100085F0100085F0100083F
:100120005F0100085F0100085F0100085F0100082F
:10013000DFF80CD000F018F800480047B1060008BE
:10014000000400200648804706480047FEE7FEE717
:10015000FEE7FEE7FEE7FEE7FEE7FEE7FEE7FEE777
:100160004D05000831010008064C074D06E0E06827
:1001700040F0010394E8070098471034AC42F6D3EE
:10018000FFF7DAFFB8060008C806000800BFFEE760
:100190001FB50121084600F041F90121480700F090
:1001A0003DF90121042000F049F900208DF80F00ED
:1001B0003020ADF80C0003208DF80E0003A91A487A
:1001C00000F09AF801A800F059FA6320ADF8080091
:1001D0004720ADF804000020ADF80A00ADF8060095
:1001E00001A94FF0804000F0F7F92021480600F007
:1001F000E9F94FF43060029002200390242000902F
:10020000802001906946002000F024F801210020A0
:1002100000F00CF800221146104600F035F80121DC
:10022000880700F0C3F91FBD0008014039B1084A32
:100230001268012383401A43054B1A6006E0044A02
:100240001268012383409A43014B1A6070470000F3
:100250000074004030B5002200230A4C226840F6AA
:10026000FE748440A243D1E900452C438D682C43A1
:10027000CD6844EA050303FA00F42243014C2260EE
:1002800030BD00000074004030B500240023082871
:1002900002D142EA012401E042EA0144024B00F1AA
:1002A00020052B441C6030BD00740040704710B521
:1002B0004FF4804000F00CF8012802D1800300F0D8
:1002C00001F810BD014908607047000014040140A6
:1002D000014600200022074B1B6803EA0102054B80
:1002E00014331B680B4013B10AB1012000E0002059
:1002F00070470000000401402DE9F041024600254E
:100300000026002000230024002791F803C00CF0F1
:100310000F0591F803C00CF0100CBCF1000F03D0D6
:1003200091F802C04CEA050591F800C0BCF1000F3D
:1003300031D0146800202BE04FF0010C0CFA00F3D0
:10034000B1F800C00CEA03069E4220D183004FF0B2
:100350000F0C0CFA03F7BC4305FA03FC4CEA040447
:1003600091F803C0BCF1280F06D14FF0010C0CFA34
:1003700000FCC2F814C00AE091F803C0BCF1480FB9
:1003800005D14FF0010C0CFA00FCC2F810C0401C63
:100390000828D1D31460B1F800C0BCF1FF0F34DDE0
:1003A000546800202EE000F1080C4FF0010808FA14
:1003B0000CF3B1F800C00CEA03069E4221D1830081
:1003C0004FF00F0C0CFA03F7BC4305FA03FC4CEAA0
:1003D000040491F803C0BCF1280F05D100F1080C0A
:1003E00008FA0CF8C2F8148091F803C0BCF1480F69
:1003F00007D100F1080C4FF0010808FA0CF8C2F818
:100400001080401C0828CED35460BDE8F08100BFA6
:10041000FEE700BFFEE770477047000029B1064ABB
:10042000D2690243044BDA6104E0034AD269824391
:10043000014BDA61704700000010024029B1064A02
:1004400092690243044B9A6104E0034A9269824331
:10045000014B9A617047000000100240704710B5D0
:1004600000F002F810BD00000CB5002001900090D3
:100470003348006840F480303149086000BF30489C
:10048000006800F4003000900198401C0190009832
:1004900018B90198B0F5A06FF1D12948006800F4AF
:1004A000003010B10120009001E000200090009881
:1004B000012843D12348006840F01000214908601A
:1004C0000846006820F0030008600846006840F015
:1004D000020008601A4840681949486008464068A8
:1004E00048600846406840F48060486008464068BC
:1004F00020F47C1048600846406840F4E8104860EA
:100500000846006840F08070086000BF0C48006832
:1005100000F000700028F9D00948406820F003007E
:10052000074948600846406840F00200486000BF44
:100530000348406800F00C000828F9D10CBD000009
:1005400000100240002002407047000010B5134820
:10055000006840F0010011490860084640681049F1
:1005600008400E494860084600680E4908400B499B
:1005700008600846006820F480200860084640684B
:1005800020F4FE0048604FF41F008860FFF767FF0B
:100590004FF000600449086010BD000000100240E8
:1005A0000000FFF8FFFFF6FE08ED00E021B1028831
:1005B00042F00102028004E002884FF6FE731A4006
:1005C0000280704782884FF68F731A40828082883B
:1005D0000A43828070470000002202881D4B984227
:1005E0000ED01D4B98420BD0B0F1804F08D01B4B62
:1005F000984205D01A4B984202D01A4B984204D127
:100600004FF68F731A404B881A43174B984207D006
:10061000164B984204D04FF6FF431A40CB881A433A
:1006200002808B8883850B8803850A4B98420BD008
:10063000094B984208D00E4B984205D00D4B98427A
:1006400002D00D4B984201D10B7A0386012383829D
:1006500070470000002C01400034014000040040BD
:1006600000080040000C0040001000400014004052
:100670000040014000440140004801404FF6FF7136
:10068000818000210180C18041800172704700BFDC
:10069000FEE702E008C8121F08C1002AFAD170471D
:1006A0007047002001E001C1121F002AFBD17047F2
:1006B000FFF76EFD00BFFEE7C8060008000000203F
:0806C00000040000A20600087E
:0400000508000131BD
:00000001FF
